:10000000AFC100000C94B5220C94E0220C940B2399
:100010000C9436230C9461230C948C230C94B723FA
:100020000C94E223CEC10000CCC10000CAC1000084
:10003000C8C100000C94732AC4C10000C2C10000F2
:10004000C0C10000BEC10000BCC10000BAC10000B8
:10005000B8C10000B6C10000B4C100000C940D246A
:10006000B0C100000C940A270C944027AAC10000DC
:10007000A8C10000A6C10000A4C10000A2C10000E8
:10008000A0C100009EC100009CC100009AC10000F8
:100090000C9496270C94CC2794C100000C947012F9
:1000A00090C100008EC100008CC100008AC1000018
:1000B00088C1000086C1000084C1000082C1000028
:1000C00080C100007EC100000C94F62A0C94222806
:1000D0000C94582876C100000C94AE280C94E428A7
:1000E00070C100008C168C168C16941692169416FD
:1000F00096169A169C16A316A31698168E16A31675
:10010000A316A3168C16901649254C253B253F2592
:1001100045258325502554255A255E2562256825C9
:100120006C257025832576257A257E25FF32BD3402
:1001300027352A3501343434BE32DF32A232043559
:10014000F33400352A352A352A358D3200000A0B62
:1001500002090C0D0E080703040100000000000056
:10016000000000000000000000000000000000008F
:10017000000000000000000012111000000000004C
:10018000000000000000000000000000000000006F
:10019000000001021020200808102040102040809C
:1001A000020102010804020101020408102040803B
:1001B00080402010080402018004020180402010C9
:1001C0000804020108040201010204081020408012
:1001D00001020408102040800505050507050808F0
:1001E0000808020202020A0A0808040404040101C1
:1001F00001010101010103030303030303030407D6
:1002000007070C0C0C0C0C0C0C0C0202020206066C
:100210000606060606060B0B0B0B0B0B0B0B000062
:100220002200250028002B002E003100340002019E
:100230000000050108010B01000021002400270037
:100240002A002D00300033000101000004010701E5
:100250000A0102001D3A2774694E53E8F5D2CF9C7B
:1002600081A6BBCDD0F7EAB9A4839E25381F0251E1
:100270004C6B76879ABDA0F3EEC9D46F7255481BBC
:1002800006213C4A57706D3E230419A2BF9885D6BB
:10029000CBECF1130E2934677A5D40FBE6C1DC8FAD
:1002A00092B5A8DEC3E4F9AAB7908D362B0C1142A3
:1002B0005F78659489AEB3E0FDDAC77C61465B0880
:1002C00015322F5944637E2D30170AB1AC8B96C579
:1002D000D8FFE2263B1C01524F6875CED3F4E9BA31
:1002E000A7809DEBF6D1CC9F82A5B8031E39247759
:1002F0006A4D50A1BC9B86D5C8EFF24954736E3D40
:1003000020071A6C71564B1805223F8499BEA3F042
:10031000EDCAD735280F12415C7B66DDC0E7FAA92C
:10032000B4938EF8E5C2DF8C91B6AB100D2A37641A
:10033000795E43B2AF8895C6DBFCE15A47607D2EFB
:100340003314097F6245580B16312C978AADB0E300
:10035000FED9C40099226927F52781280D2979291A
:1003600011241FBECFEFD1E2DEBFCDBF00E00CBF36
:1003700013E0A0E0B2E0ECE0F6E700E00BBF02C063
:1003800007900D92A837B107D9F728E0A8E7B3E0A6
:1003900001C01D92A736B207E1F711E0C0EBD1E032
:1003A00000E006C021970109802FFE010E9422393A
:1003B000CA3AD10780E00807A9F70E94B2360C9428
:1003C000043B1ECE8F929F92AF92BF92CF92DF924C
:1003D000EF92FF920F931F9344E358E060E278E0BE
:1003E0008CE098E00E940B2144E358E060E278E062
:1003F0008CE098E00E945E2181E090E00E94A110D4
:1004000040914E0850914F086091500870915108EA
:1004100080E090E00E949D1080905E0890905F08C0
:10042000A0906008B090610820E030E040E85FEB09
:10043000C501B4010E94A437882331F1C0904E0851
:10044000D0904F08E0905008F0905108A701960115
:10045000C501B4010E943F374B015C0120E030E050
:1004600040E054E3C701B6010E948A389B01AC0109
:10047000C501B4010E948638181634F084E892E071
:10048000909339088093380880916208882331F06E
:1004900084E892E09093390880933808809152085C
:1004A00090915308A0915408B0915508BC01CD011A
:1004B0006F5F7F4F8F4F9F4F609352087093530829
:1004C0008093540890935508611571058105910535
:1004D000A1F40091560810915708209158083091C6
:1004E00059080F5F1F4F2F4F3F4F0093560810932F
:1004F00057082093580830935908C0905A08D09054
:100500005B08E0905C08F0905D080E94D437A7017A
:1005100096010E948A384B015C01609156087091E7
:10052000570880915808909159080E94D437A70124
:1005300096010E948A3820E030E040E85FE40E94A3
:100540008A389B01AC01C501B4010E944037609319
:100550004E0870934F0880935008909351081F9154
:100560000F91FF90EF90DF90CF90BF90AF909F9052
:100570008F900895CF93DF93E8E3F8E08BE2DF01FB
:100580001D928A95E9F780E090E0A0E8BFEB86A392
:1005900097A3A0A7B1A78DEC9CECACE4BDE382A32C
:1005A00093A3A4A3B5A386E296EDA3EDBAEC84834E
:1005B0009583A683B78380E096E5A4EBBFE58087AB
:1005C0009187A287B3878FEE90E7AFE6B7EE848777
:1005D0009587A687B78787E699E0A7EDB2E8808B75
:1005E000918BA28BB38BAEE8B3E0B383A2838CE88C
:1005F00093E011969C938E9384E093E090938D0307
:1006000080938C038CE498E015969C938E931497BA
:100610008CE398E013969C938E9312978EE498E067
:1006200017969C938E93169788E2ACE0B8E0ED01A4
:1006300019928A95E9F710923408109235081092B1
:10064000360810923708A8E7B3E084E1ED0119926B
:100650008A95E9F7B58BA48B8EE090E011969C9378
:100660008E938AE392E013969C938E9312978EE179
:1006700092E015969C938E9314978AE092E01796D9
:100680009C938E931697DF91CF9108950895EF92E2
:10069000FF920F931F93CF93DF93DC01EA01F901DF
:1006A00014968D919C91159712960D911C9113970C
:1006B000080F191F2881398118964D915C9119975F
:1006C0004217530728F04D915C911197452B39F152
:1006D0007801E21AF30A18964D915C911997481B1C
:1006E000590B4E0D5F1D4617570794F1A901460F90
:1006F000571F40175107E0F0F182E08233832283D5
:100700006E197F0975836483161617061CF4382F3B
:10071000292F02C030E020E03683278313C01896CB
:100720008D919C911997821B930B8617970784F0E4
:100730007183608333832283158214821782168229
:1007400088819981680F791F7983688380E001C06F
:1007500081E0DF91CF911F910F91FF90EF9008956D
:10076000CF92DF92EF92FF92CF93DF936B017C01E8
:1007700084E48C9DE0018D9DD00D1124C656DC4F84
:100780008AA99BA9009721F00E94533A1BAA1AAA92
:1007900084E48C9DF0018D9DF00D1124E656FC4FF4
:1007A00086A997A9009711F00E94533A84E48C9D82
:1007B000F0018D9DF00D1124E656FC4F138A128A2C
:1007C000168A178A108E118E128E138E148E158E25
:1007D000168E178E10A211A281E090E093A382A33F
:1007E00015A214A216A217A210A611A613A612A64D
:1007F00015A614A616A617A610AA11AA13AA12AA1D
:1008000015AA14AA17AA16AA11AE10AE12AE13AEEC
:1008100014AE15AEDF01DE961D921D921D921C9244
:100820001397EE5BFF4F11821082DF91CF91FF9003
:10083000EF90DF90CF9008950F931F93CF93DF93A6
:10084000EB01DC018D919C91FC01A681B781E881CF
:10085000F98123E0EE0FFF1F2A95E1F712962D9103
:100860003C911397E20FF31F00811181AC85BD8588
:100870009D01220F331FDC0112968D919C911397DD
:10088000D901A80FB91F8D919C9124813581232B0B
:1008900019F461E070E002C062E070E0689F9001CE
:1008A000699F300D789F300D112488859985289F88
:1008B000B001299F700D389F700D1124EC81FD81CE
:1008C0002E9FC0012F9F900D3E9F900D1124800FF1
:1008D000911FFA019183808373836283DF91CF91AB
:1008E0001F910F9108952F923F924F925F926F92B6
:1008F0007F928F929F92AF92BF92CF92DF92EF92B0
:10090000FF920F931F93CF93DF9300D000D0CDB70A
:10091000DEB7DC011496ED91FC9115970190F08102
:10092000E02D808591859A838983A281B381BC83E0
:10093000AB83FB0181909190A190B1908F01C12C6C
:10094000D12C7601C814D904EA04FB040CF05FC072
:10095000D80114964D905D906D907C9017971896E5
:100960004D915D916D917C911B97F8017096FE837E
:10097000ED83F801A081B18183E0AA0FBB1F8A95A6
:10098000E1F7E981FA8182819381A80FB91F2D9047
:100990003C901197F80124853585220F331F8B81F8
:1009A0009C81280F391FF9010081118114968D91C6
:1009B0009C911597892B19F481E090E002C082E0A8
:1009C00090E0809F9001819F300D909F300D112409
:1009D000249F8001259F100D349F100D1124249D0C
:1009E000C001259D900D349D900D1124A8016D81AD
:1009F0007E81820D931D0E94EB3A8D819E81080FAE
:100A0000191F9FEFC91AD90AE90AF90A9BCF26963E
:100A10000FB6F894DEBF0FBECDBFDF91CF911F910F
:100A20000F91FF90EF90DF90CF90BF90AF909F908D
:100A30008F907F906F905F904F903F902F90089590
:100A4000CF93DF93DB01AA5ABD4F2C91222369F08B
:100A500024E4269FF001279FF00D1124E656FC4F59
:100A6000EF0119922A95E9F71C9224E4269FF001E0
:100A7000279FF00D1124E656FC4F14821582168232
:100A800017821186108613861286118A108A17869D
:100A90001686DF91CF9164CE2F923F924F925F9254
:100AA0006F927F928F929F92AF92BF92CF92DF927E
:100AB000EF92FF920F931F93CF93DF93CDB7DEB7E3
:100AC00028970FB6F894DEBF0FBECDBF6B017C0137
:100AD0001A0184E48C9D90018D9D300D11242656C1
:100AE0003C4FF90184819581A681B781892B8A2B9E
:100AF0008B2B09F4B8C0A12CB12C412C512C320104
:100B000038872F83C90104969A838983D90118965F
:100B1000BC83AB83E981FA8180819181A281B38119
:100B2000481659066A067B0694F5AB81BC81ED91A7
:100B3000FC91EA0DFB1D228133818901812C912CCE
:100B400082149304C4F4D801ED91FC91309769F0BC
:100B5000848195812D833E830E94533AF8018081E0
:100B600091810E94533A3E812D81FFEF8F1A9F0A97
:100B70000E5F1F4FE5CFC9010E94533A8FEF481A0D
:100B8000580A680A780A94E0A90EB11CC3CFAF8155
:100B9000B88518968D919C9119970E94533AEF81D0
:100BA000F88582859385892B59F1A12CB12C812C54
:100BB000912C84E48C9D80018D9D100D11240C5589
:100BC0001C4F8214930484F4D801ED91FC91EA0D3A
:100BD000FB1D848195810E94533ABFEF8B1A9B0ABB
:100BE000EEE0AE0EB11CEDCF84E48C9DF0018D9D46
:100BF000F00D1124E656FC4F828593850E94533AEE
:100C000084E48C9D90018D9D300D11248901065640
:100C10001C4FD80150968D919C9151970E94533A48
:100C2000F801868597850E94533AC701B60198DD81
:100C3000C701B60128960FB6F894DEBF0FBECDBF30
:100C4000DF91CF911F910F91FF90EF90DF90CF90A8
:100C5000BF90AF909F908F907F906F905F904F90DC
:100C60003F902F90EDCE28960FB6F894DEBF0FBEC2
:100C7000CDBFDF91CF911F910F91FF90EF90DF904B
:100C8000CF90BF90AF909F908F907F906F905F902C
:100C90004F903F902F90089524E4269FF001279FC6
:100CA000F00D1124E656FC4F828993890497029730
:100CB00058F485E090E0938B828B8FEF9FEFDC01FF
:100CC000828F938FA48FB58F08952F923F924F926A
:100CD0005F926F927F928F929F92AF92BF92CF92CC
:100CE000DF92EF92FF920F931F93CF93DF93CDB7D5
:100CF000DEB7E0970FB6F894DEBF0FBECDBF9AA364
:100D000089A31B016A012801390184E4849D8001C3
:100D1000859D100D1124980126563C4F7901D9016B
:100D20004D925D926D927C921397AB01C301B2011B
:100D3000B3DEF801E256FC4FD6014D915D916D9105
:100D40007D918D01CA01408351836283738364E086
:100D500070E00E94A439F70191878087892B09F4FC
:100D60009FC11E8E1D8E198E1A8E1B8E1C8EF8A290
:100D7000EF8E97012C5F3F4F38A72FA32C5F3F4F7B
:100D80003AA729A7EFA1F8A580819181A281B3811B
:100D9000298D3A8D4B8D5C8D281739074A075B07E3
:100DA0000CF0E7C0A9A5BAA58D919C912D8D3E8D23
:100DB000280F391F3A8B298BD801ED91FC91EE0F4A
:100DC000FF1FA9A1BAA18D919C91E80FF91F808105
:100DD0009181F90191838083D80114962D913D91E1
:100DE0004D915C9117972BA33CA34DA35EA3085F85
:100DF0001F4F62E070E0C1010E94A439E989FA89BD
:100E000093838283892B09F44BC11D8A1E8A1F8A12
:100E1000188E2D893E894F89588D8BA19CA1ADA13B
:100E2000BEA1281739074A075B070CF08FC0D8010D
:100E3000ED90FC90EE0CFF1CE989FA89C280D3800A
:100E4000CE0CDF1C68E070E081E090E00E94A439E5
:100E5000D6018D939C93E989FA8982819381FC0163
:100E6000EE0DFF1DC080D180C114D10409F418C15A
:100E7000F80184819581A681B781F60180839183F1
:100E8000A283B383085F1F4F181619061A061B06A4
:100E900034F01C8A1B8A812C912C54010CC064E014
:100EA00070E00E94A439D60115969C938E931497F6
:100EB000892B79F7F5C0F60180819181A281B381F8
:100EC00088169906AA06BB06A4F5F601E480F5800B
:100ED0002B893C89E20EF31EF801DE01119680E1B8
:100EE00001900D928A95E1F7005F1F4FA701BE01A7
:100EF0006F5F7F4FA9A1BAA114968D919C91159710
:100F00009BDCF60126813781D70112968D919C9149
:100F10001397820F931F97838683BFEF8B1A9B0AC9
:100F2000AB0ABB0A2B893C892C5F3F4F3C8B2B8B38
:100F3000C2CF2D893E894F89588D2F5F3F4F4F4F2C
:100F40005F4F2D8B3E8B4F8B588F63CF298D3A8D02
:100F50004B8D5C8D2F5F3F4F4F4F5F4F298F3A8FE7
:100F60004B8F5C8F2D8D3E8D2C5F3F4F3E8F2D8F95
:100F700009CF6EE070E0C1010E94A439AF8DB8A125
:100F80001B969C938E931A97812C912CA12CB12C9B
:100F9000C12CD12C24E4249DC001259D900D112449
:100FA0009C012C553C4F3A8B298B21E030E0A21458
:100FB000B3040CF04DC0D8014D915D916D917D91C0
:100FC0008D01E989FA89E080F180E80CF91C77FD50
:100FD00067C0D70111963C932E93411551056105C9
:100FE0007105A9F0CA012FA738AB4BA75CA76DA765
:100FF0007EA70E94BE39F701958384832FA538A967
:101000004BA55CA56DA57EA5892B31F449C0D70100
:1010100015961C921E921497F70153834283848184
:10102000958197838683918780871386128681E0D6
:1010300090E0452B462B472B11F480E090E0C80E42
:10104000D91EFFEFAF1ABF0A4EE0840E911CAFCF3E
:1010500084E4849D8001859D100D112406561C4F4B
:10106000D8011D961C921E921C97C60133E0880F72
:10107000991F3A95E1F70E94BE39F801918B808B58
:10108000892B71F0C601880F991F0E94BE39D801C3
:101090001F969C938E931E97892B11F080E005C0BC
:1010A000A101C301B201F8DC81E0E0960FB6F8942B
:1010B000DEBF0FBECDBFDF91CF911F910F91FF908B
:1010C000EF90DF90CF90BF90AF909F908F907F90E8
:1010D0006F905F904F903F902F9008952F923F9286
:1010E0004F925F926F927F928F929F92AF92BF9238
:1010F000CF92DF92EF92FF920F931F93CF93DF93E4
:10110000CDB7DEB768970FB6F894DEBF0FBECDBF80
:101110009C8B8B8BDB0149015A0124E4289DC00183
:10112000299D900D11249C0126563C4F79012D914B
:101130003C911197F701358B248BFC01E055FC4F56
:1011400014964D915D916D917C91179740835183D9
:1011500062837383FC01EC54FC4F18964D915D91B2
:101160006D917C911B974083518362837383FC0153
:10117000E854FC4F1C964D915D916D917C911F97A9
:101180004083518362837383FC01E853FC4F509684
:101190005C91509751964C91519752963C91529731
:1011A00053962C91539750834183328323838D012F
:1011B0000C5E1F4F852F942F181619060CF068C06F
:1011C000880F991F880F991F0E94BE39D701D396A7
:1011D0009C938E93D297892B09F4BCC0212C312C7F
:1011E000412C512C32019701225D3F4F3E8B2D8BBC
:1011F0002C5F3F4F388F2F8B2E5F3F4F3A8B298BC1
:10120000B301A2012FEF421A520A620A720AED8953
:10121000FE8980819181A281B381481759076A07AD
:101220007B074CF5AF89B88DCD90DC90C20CD31CF8
:10123000F801DE01119680E101900D928A95E1F7A7
:10124000005F1F4FA601BE016F5F7F4FEB89FC89D6
:1012500084819581F1DAA989BA898D919C91119740
:10126000F60122813381820F931F8D939C93F4E0CA
:101270002F0E311CC5CFD701D4968D919C91D59757
:101280000E94BE39F70197AB86AB892B09F462C087
:10129000F80180819181A281B38124E4289DF0012D
:1012A000299DF00D1124E656FC4FAC01BD014D7F88
:1012B00021E030E0452B462B472B11F020E030E0B9
:1012C00033A322A324E4289DF001299DF00D1124CD
:1012D000E656FC4F0197A109B10921E030E00297E1
:1012E000A105B10510F020E030E035A324A384E48B
:1012F000889DF001899DF00D1124CF0180549C4FF1
:10130000D80114964D915D916D917C911797DC01F8
:101310004D935D936D937C931397E656FC4F868DAA
:10132000978DA0A1B1A1B7FF10C0B095A0959095E1
:1013300081959F4FAF4FBF4F82AF93AFA4AFB5AF73
:10134000168E178E10A211A20AC012AE13AE14AEE2
:1013500015AE05C0C501B40103DA81E001C080E02B
:1013600068960FB6F894DEBF0FBECDBFDF91CF9168
:101370001F910F91FF90EF90DF90CF90BF90AF90B3
:101380009F908F907F906F905F904F903F902F90A5
:101390000895CF92DF92EF92FF92CF93DF93109256
:1013A000220424E4269FF001279FF00D1124E65625
:1013B000FC4F15A614A620E030E0C12CD12CDF0193
:1013C0001A96C1E0D0E0C416D506D4F4ED91FC9194
:1013D0001197E20FF31FE280F3801E141F0454F4F0
:1013E000E480F580F782E682F186E0861386128635
:1013F000D183C083EFEFCE1ADE0A225F3F4FE3CFE7
:1014000024E4269FF001279FF00D1124E656FC4F9F
:1014100013A612A611AE10AEDF01DE961D921D922C
:101420001D921C92139782E090E0938B828BDF9148
:10143000CF91FF90EF90DF90CF90089524E4269F06
:10144000F001279FF00D1124E656FC4F138A128AF3
:1014500023CB24E4269FF001279FF00D1124E656AC
:10146000FC4F8289938981309105C8F085309105C0
:1014700018F0059769F008958FEF9FEFDC01828FD8
:10148000938FA48FB58F85E090E0938B828B089526
:101490008FEF9FEFDC01828F938FA48FB58F08951C
:1014A00024E4249FF001259FF00D1124E656FC4F03
:1014B0002EE0AC01249FC001259F900D11240284D1
:1014C000F385E02DE80FF91F81E0809322048285E7
:1014D000938591878087408551852681378181E07A
:1014E00090E04217530711F080E090E091838083F1
:1014F00008952F923F924F925F926F927F928F92B8
:101500009F92AF92BF92CF92DF92EF92FF920F9392
:101510001F93CF93DF93CDB7DEB7C255D1090FB676
:10152000F894DEBF0FBECDBF21969FAF8EAF21973F
:101530004BA75CA76DA77EA74801590184E4889D4D
:101540008001899D100D1124F801E656FC4F22857B
:10155000338527963FAF2EAF2797828993890297CD
:1015600009F060C186A597A5A0A9B1A9892B8A2BEE
:101570008B2B29F484E090E0938B828B53C1848978
:10158000958921964EAD5FAD21974817590709F00F
:1015900049C186A997A99AAB89AB1EAE1DAE19AEFB
:1015A0001AAE1BAE1CAE8F01DF019E962996BFAF0F
:1015B000AEAF2997F2962B96FFAFEEAF2B9798011F
:1015C000285C3F4F2D963FAF2EAF2D97A8014A5D67
:1015D0005F4F2F965FAF4EAF2F97C80182966196EF
:1015E0009FAF8EAF61971A976396BFAFAEAF639709
:1015F0002996EEADFFAD299780819181A281B381BB
:1016000029AD3AAD4BAD5CAD281739074A075B07EA
:101610000CF0E7C02B96EEADFFAD2B97808191814A
:101620002DAD3EAD280F391F3EAB2DABD901129623
:101630000D90BC91A02D2396BFAFAEAF2397B6956A
:10164000A795B695A7952596BFAFAEAF25972D96D2
:10165000EEADFFAD2D9780819181892B09F496C065
:101660002F96AEADBFAD2F97CD90DD90ED90FC9055
:1016700029A83AA8F9010190F081E02DF8ABEFA775
:1016800018AE1FAA8FA998AD2596AEADBFAD259710
:101690008A179B070CF07AC06196AEADBFAD61971B
:1016A0008D919C91892B69F1EFA5F8A9408051801B
:1016B00062807380A7019601C301B2010E9486383F
:1016C00087FD0BC0A7019601D1016D917D918D9190
:1016D0009C910E94A43787FD8CC0A7019601C3018D
:1016E000B2010E948638181664F4A7019601F10130
:1016F00060817181828193810E94A437882309F4DB
:1017000078C06396AEADBFAD63978D919C91892BE8
:1017100069F1EFA5F8A94080518062807380A7012C
:101720009601C301B2010E94A43787FF0BC0A70135
:101730009601D1016D917D918D919C910E94863889
:1017400087FF57C0A7019601C301B2010E94A437C9
:1017500081110CC0A7019601F10160817181828124
:1017600093810E94863818160CF443C02FA938AD17
:101770002F5F3F4F38AF2FAB34E0230E311C4FA506
:1017800058A94C5F5F4F58AB4FA77CCFEDA9FEA97E
:101790006081718123964EAD5FAD239789A99AA987
:1017A0000E94EB3A25968EAD9FAD2597880F991F25
:1017B000880F991F29A93AA9280F391F3AAB29ABDD
:1017C00089AD9AADABADBCAD0196A11DB11D89AF80
:1017D0009AAFABAFBCAFADADBEAD1496BEAFADAFC3
:1017E00007CF81E090E0D801D9969C938E93D8974B
:1017F00019C084E4889DF001899DF00D1124E656FE
:10180000FC4F868D978DA0A1B1A1892B8A2B8B2BA4
:1018100009F064C284E090E0938B828B86AD97AD33
:1018200093A782A784E4889DF001899DF00D11247F
:10183000E656FC4F828993898230910571F482AD1E
:1018400093ADA4ADB5AD181619061A061B060CF01B
:101850004CC2CC24C394D12C05C0049709F045C2D6
:10186000C12CD12C8EE02196EEADFFAD21978E9F3D
:1018700070018F9FF00C112427962EAD3FAD279756
:10188000E20EF31ED70112964D915C91139741150C
:10189000510509F42AC216968D919C9117979AA723
:1018A00089A7FE01319684E1DF011D928A95E9F74F
:1018B000898A9A8AAB8ABC8AC114D10409F457C0B8
:1018C00084E4889DF001899DF00D1124E656FC4FBB
:1018D000DF01DE964D905D906D907C9082AD93AD72
:1018E000A4ADB5AD481659066A067B0609F03FC09F
:1018F000F701648175810084F185E02D84819581F3
:10190000A681B7819C018D8B9E8BAF8BB88F285F92
:101910003F4F3E8B2D8BD70118968D919C91199737
:10192000280F391F19963C932E93189718968D916E
:101930009C911997460F571F841B950B97FD06C066
:10194000860F971F19969C938E93189784E4889D11
:10195000F001899DF00D1124E852FC4FB1E04B1AC3
:1019600051086108710840825182628273829E012F
:101970002B5E3F4FAE01475D5F4F64E170E0C701F2
:101980000E944703082F10E00115110509F091C1CD
:101990008CE090E0A0E0B0E08D839E83AF83B887B9
:1019A0009E01235E3F4FAE01475D5F4F64E070E0F4
:1019B000C7010E944703082F10E00115110509F027
:1019C00078C180E190E0A0E0B0E08D839E83AF839A
:1019D000B8874D8D5E8DBE01655D7F4F8F8D98A15F
:1019E0000E94EB3A8BA19CA1009761F06D8D7E8DDA
:1019F000EBE2F0E0EC0FFD1F6E0F7F1F49A15AA133
:101A00000E94EB3A1DA21EA21FA218A621962EAD7F
:101A10003FAD2197220F331F38AF2FAB24E4289D11
:101A2000C001299D900D112486569C4FAC014C5F3E
:101A30005F4F5AAF49AFDC011896BEAFADAF2DA1D5
:101A40003EA14FA158A529AB3AAB4BAB5CABE9AD7E
:101A5000FAAD80819181A281B381281739074A07A5
:101A60005B070CF0CFC0ADADBEADED91FC9189A987
:101A70009AA9880F991F880F991FE80FF91FA08155
:101A8000B1818C91882309F4AFC0833009F4ACC0D4
:101A90000280F381E02D2FA938ADE20FF31F4081C2
:101AA000518158AB4FA7452B09F49EC089859A8573
:101AB000AB85BC850196A11DB11D89879A87AB872F
:101AC000BC879E01235E3F4FAE01475D5F4F64E0E0
:101AD00070E0C7010E94470390E0009709F0E8C05A
:101AE0008D819E81AF81B8850496A11DB11D8D8326
:101AF0009E83AF83B8874D8D5E8DBE016B5D7F4F3A
:101B00008F8D98A10E94EB3A8BA19CA1009761F068
:101B10006D8D7E8DA5E2B0E0AC0FBD1F6A0F7B1FFF
:101B200049A15AA10E94EB3A1EAA1DAA412C512C90
:101B30003201EFA5F8A980819181A281B381481675
:101B400059066A067B060CF04FC0EFA5F8A9248061
:101B500035802DA93EA9220E331ED10112966D911A
:101B60007C9113979E01235E3F4FAE01475D5F4F0F
:101B7000C7010E94470390E0009709F099C0F10166
:101B800082819381092E000CAA0BBB0B4D815E81D3
:101B90006F817885840F951FA61FB71F8D839E8345
:101BA000AF83B887608171814D8D5E8D8F8D98A1D7
:101BB0000E94EB3A8BA19CA1009759F0D1016D9145
:101BC0007C912D8D3E8D620F731F49A15AA10E94F9
:101BD000EB3ABFEF4B1A5B0A6B0A7B0AEDA9FEA931
:101BE0003496FEABEDABA5CF49A85AA86BA87CA84C
:101BF000FFEF4F1A5F0A6F0A7F0A4DA25EA26FA223
:101C000078A61DCF89859A85AB85BC85892B8A2BC3
:101C10008B2B09F44EC08AE190E0A0E0B0E089830C
:101C20009A83AB83BC8321962EAD3FAD2197C9012A
:101C3000330FAA0BBB0B8D879E87AF87B88B4D895F
:101C40005E89BE016F5F7F4F8F89988D0E94EB3A4E
:101C50008B8D9C8D009761F06D897E8941E050E00D
:101C60004C0F5D1F640F751F498D5A8D0E94EB3A12
:101C700089A59AA5D70117969C938E9316971196CE
:101C80001C921E92CD2889F184E4889DF001899DE3
:101C9000F00D1124E852FC4F80819181A281B38123
:101CA0000196A11DB11D80839183A283B3831DC0C2
:101CB0008C01CD28D1F4012BC1F084E4889DF00182
:101CC000899DF00D1124E656FC4F81E090E095A728
:101CD00084A785E090E0938B828B07C083E090E03F
:101CE000938B828B81E090E09BCDCE5ADF4F0FB675
:101CF000F894DEBF0FBECDBFDF91CF911F910F9142
:101D0000FF90EF90DF90CF90BF90AF909F908F901B
:101D10007F906F905F904F903F902F900895CF925B
:101D2000DF92EF92FF920F931F936B017C0184E48B
:101D30008C9DF0018D9DF00D1124E656FC4F82899B
:101D40009389009709F450C00197B9F482A593A52F
:101D50009C012F5F3F4F33A722A7092E000CAA0B2F
:101D6000BB0B028D138D248D358D80179107A20733
:101D7000B307D1F5C701B6010CDB84E48C9DF001FB
:101D80008D9DF00D1124E656FC4F828993890397AF
:101D900059F582A593A59C012F5F3F4F33A722A73A
:101DA000092E000CAA0BBB0B468D578D60A171A1AB
:101DB00084179507A607B707BCF086AD97AD93A724
:101DC00082A784E090E0938B828B82AD93ADA4AD2B
:101DD000B5AD181619061A061B0634F4EE5BFF4F54
:101DE00081E090E0918380831F910F91FF90EF90AD
:101DF000DF90CF90089524E4269FF001279FF00DF7
:101E00001124E656FC4F828993890497B1F482A588
:101E100093A5019693A782A7092E000CAA0BBB0BD2
:101E200046895789608D718D84179507A607B70776
:101E300021F485E090E0938B828B08952F923F925E
:101E40004F925F926F927F928F929F92AF92BF92CA
:101E5000CF92DF92EF92FF920F931F93CF93DF9376
:101E6000CDB7DEB72E970FB6F894DEBF0FBECDBF4D
:101E700049835A836B837C834901442E552E24E485
:101E8000249DF001259DF00D1124E656FC4F22887B
:101E9000338891012450310915861486223031058A
:101EA00008F0DDC0DC0111961C921E9213961C9264
:101EB0001E921297A12CB12C60E070E09F01265F6A
:101EC0003F4F38872F837F013CE0E30EF11CDF0199
:101ED0005096BA87A9879F01225F3F4F3C872B8787
:101EE000681579050CF06FC0EF81F885A081B1818C
:101EF0009D012A0D3B1D3E872D87D9012D913C91D7
:101F00001197232B09F059C018960D911C91199720
:101F10001296ED91FC911397FE83ED8316962D9109
:101F20003C911797D7014D915C91DA01E3E0AA0F3C
:101F3000BB1FEA95E1F7E985FA85C080D180FD01F4
:101F4000EC0DFD1D440F551FAB85BC85CD90DC907D
:101F50004C0D5D1DDA016D937C93D7014D915C9121
:101F600011974F5F5F4F4D935C9313830283AD8551
:101F7000BE851B963C932E931A970217130748F4BD
:101F8000201B310B31832083158214821782168225
:101F900014C0AD85BE851496CD90DC9015974D810B
:101FA0005E814C0D5D1D401B510B518340832C19EC
:101FB0003D0935832483D782C6826F5F7F4FBEE0A1
:101FC000AB0EB11C8DCF24E4249D8001259D100D06
:101FD000112406561C4FF80124853585DC01119625
:101FE0003C932E934089518913965C934E9312979C
:101FF0004685578515965C934E931497232BA1F530
:10200000B5E02B16310481F510922204828D938D58
:10201000A48DB58DAE014F5F5F4F64E070E08F3FE0
:102020009F4FAF4FBF4F59F480E290E00E948E2E39
:1020300069817A818B819C81A40100DA15C08FE1CE
:1020400090E00E948E2ED8019B961C921E929A9729
:1020500081E090E053969C938E93529705C0FC01CB
:1020600011821082138212822E960FB6F894DEBF70
:102070000FBECDBFDF91CF911F910F91FF90EF90D9
:10208000DF90CF90BF90AF909F908F907F906F9098
:102090005F904F903F902F900895EF92FF920F9393
:1020A0001F93CF93DF937C018B01EA010E94112FD4
:1020B000811121C08091580290915902049711F129
:1020C00083E090E090935902809358021BC098815E
:1020D0009111F0CF28ED38EB45E050E060E070E082
:1020E000CB010E949B31AE01B801C7010E94A9310A
:1020F000C8010E9474318091230490912404892B9B
:1021000031F3D8CFDF91CF911F910F91FF90EF90D6
:102110000895CF93DF9320915802309159022430D3
:10212000310541F0EB010E94A931CE01DF91CF9141
:102130000C947431DF91CF9108950C94BB350C94BD
:10214000B0350C949E350C9484310C94423508952E
:1021500060E070E080E090E00C94EC2E0895AF9287
:10216000BF92CF92DF92EF92FF920F931F93CF9384
:10217000DF931F921F92CDB7DEB75C0169017A0130
:102180008B0180E090E0C114D104E104F104F1F08E
:10219000C114D10421E0E206F10410F4A60102C04A
:1021A0004FEF5FEF9E012F5F3F4FB801C5010E94C7
:1021B0005C368F3F2FEF920749F029813A81C21A8E
:1021C000D30AE108F108020F131FDDCF0F900F9023
:1021D000DF91CF911F910F91FF90EF90DF90CF9003
:1021E000BF90AF9008958091C30490E02091C40403
:1021F000821B910908959091C4048091C30498179B
:1022000050F4E92FF0E0EB53FB4F208130E09F5F6B
:102210009093C40402C02FEF3FEFC9010895E091ED
:10222000C4048091C304E81730F4F0E0EB53FB4F93
:10223000808190E008958FEF9FEF089508951092A8
:10224000520581E08093500510924F0561E084E1D2
:102250000E94C02561E085E10E94C025E9EBF0E025
:1022600080818E7F808380818D7F808388E48093CE
:10227000B80085E48093BC000895413208F043C063
:10228000909152059111FCCF91E0909352052093CB
:1022900050052FEF2093E50410922A05240F209378
:1022A00029059093510590915105880F892B8093B2
:1022B000510580914F05813061F410924F05809156
:1022C00051058093BB008091BC0083FDF8CF85EC65
:1022D00001C085EE8093BC00809152058130E1F30E
:1022E00080912A05841710F440912A052BE235E0ED
:1022F000FB01D9018A2F821B841718F48D918193D9
:10230000F9CF842F089580E008950F934132E8F5C6
:10231000909152059111FCCF32E030935205009319
:1023200050053FEF3093E50410922A0540932905AC
:10233000FB016BE275E0DB013A2F361B341718F412
:1023400031913D93F9CF1092510530915105880F8D
:10235000832B8093510580914F05813061F4109259
:102360004F05809151058093BB008091BC0083FD97
:10237000F8CF85EC01C085EE8093BC00222339F0B4
:1023800080915205823019F4F9CF91E011C080910B
:10239000E5048F3F69F08091E504803231F080914F
:1023A000E504803321F094E003C092E001C093E0A3
:1023B000892F0F91089540910705262F30E0240FB3
:1023C000311D21323105DCF4209152052430C9F44D
:1023D000FC0180E090E0861758F4309107052191C8
:1023E000DC01A75FBA4FA30FB11D2C930196F3CF69
:1023F00080910705680F6093070580E0089581E0EC
:10240000089582E00895CF93DF931F92CDB7DEB792
:10241000698320919F042223D1F02091A0042032CF
:1024200040F021E030E0FC013383228380E090E043
:1024300014C08091A104E82FF0E0EE55FB4F998184
:1024400090838F5F8093A1048093A00404C061E017
:10245000CE010196B0DF81E090E00F90DF91CF9147
:102460000895CF92DF92EF92FF920F931F93CF9335
:10247000DF937C01262F972F8A0180919F04882368
:1024800091F0C62FD72F6E01C40ED51ECC15DD05D9
:1024900069F06991D701ED91FC910190F081E02DF7
:1024A000C7011995F3CF642F822F85DFC801DF9113
:1024B000CF911F910F91FF90EF90DF90CF900895F3
:1024C00085ED8093BC008091BC0084FDFCCF109210
:1024D0005205089585EC8093BC0010925205089532
:1024E0001F920F920FB60F9211240BB60F922F93DB
:1024F0003F934F935F936F937F938F939F93AF938C
:10250000BF93EF93FF938091B900887F803609F4E1
:102510009DC070F5883209F45CC090F4803109F4F4
:1025200055C038F4882309F4F3C0883009F44EC04C
:10253000F2C0883109F44DC0803209F45EC0EBC0AE
:10254000803409F469C050F4803309F456C08833EC
:1025500009F0E1C08093E504BDDFDDC0803509F4FA
:102560004FC0883509F45DC0883409F0D4C0D2C0AA
:10257000883909F4C3C0A8F4883709F467C038F46F
:10258000883609F463C0803709F460C0C4C0883855
:1025900009F4B4C0803909F45FC0803809F0BBC0C9
:1025A0005BC0803B09F482C038F4803A09F466C00D
:1025B000883A09F47BC0AFC0803C09F4A3C0883CD2
:1025C00009F4A0C0883B09F486C0A5C080915105DC
:1025D00010C090912A0580912905981770F5E09117
:1025E0002A0581E08E0F80932A05F0E0E55DFA4F21
:1025F00080818093BB0085EC82C08093E5048AC013
:10260000E0912A0581E08E0F80932A058091BB001E
:10261000F0E0E55DFA4F808390912A0580912905CD
:102620006AC0E0912A0581E08E0F80932A0580918F
:10263000BB00F0E0E55DFA4F808380915005811189
:1026400069C081E080934F0584EA5DC083E0809398
:1026500052051092E604CFCF8091E604803208F054
:102660004DC0E091E60481E08E0F8093E6048091F6
:10267000BB00F0E0E951FB4F8083BDCF2BDF8091A1
:10268000E604803230F4E091E604F0E0E951FB4FDB
:1026900010826091E60470E0E0914B05F0914C05EA
:1026A00087EE94E019951092E60435C084E080939B
:1026B00052051092080510920705E0914D05F09122
:1026C0004E05199580910705811105C081E0809321
:1026D000070510920905E091080581E08E0F8093AF
:1026E0000805F0E0E75FFA4F80818093BB0090918E
:1026F000080580910705981708F47DCF85E8809339
:10270000BC0009C085EC8093BC001092520503C048
:102710001092E504D5DEFF91EF91BF91AF919F91AB
:102720008F917F916F915F914F913F912F910F907A
:102730000BBE0F900FBE0F901F901895DC01ED910E
:10274000FC910190F081E02D642F1994DC01ED9152
:10275000FC910190F081E02D1994FC01138212820A
:1027600088EE93E0A0E0B0E084839583A683B783EE
:102770008BE093E09183808308951092C4041092BB
:10278000C3041092A1041092A00459CD81E080935B
:102790009F046093C2041092A1041092A0040895B3
:1027A0000F93062F21E04091A00462EA74E080912B
:1027B000C204ABDD1092A1041092A00410929F04F9
:1027C0000F9108954F925F926F927F92AF92BF9256
:1027D000CF92EF92FF920F931F93CF93DF935C0101
:1027E000F62ED42F28013901EE2011F1CFDFCE2DA6
:1027F000C43008F0C3E0C150C0F0D501ED91FC91A8
:10280000B8E0CB9FC0011124A301920104C05695EA
:102810004795379527958A95D2F7CA01B901019056
:10282000F081E02DC5011995E6CF60E0C501B8DF64
:102830004D2FD13208F040E22C2D65EC74E08F2D45
:102840001CDD1092C4048093C304DF91CF911F91CB
:102850000F91FF90EF90CF90BF90AF907F906F90CF
:102860005F904F900895CF92EF920F931F93C22ED7
:10287000E12C00E010E09801A5DF1F910F91EF908F
:10288000CF90089521E0EFCF61E08ACFCF93DF931F
:10289000FC012789308D232B69F0EC010E9457241D
:1028A0002A8D3B8D621B730B81E02F89388D261793
:1028B000370708F080E0DF91CF910895FC0189E2AD
:1028C000868B108E178A118E10A211A212A283E09D
:1028D00090E094A383A30895EF92FF920F931F9328
:1028E000CF93DF931F92CDB7DEB78C017B01FC0144
:1028F000668983E994E0498349DF6F2D70E083E9BD
:1029000094E024DFB701772783E994E01FDF498152
:10291000642F83E994E077DD83E994E0B5DFF80183
:1029200083870F90DF91CF911F910F91FF90EF90D0
:1029300008951F93CF93DF93EC01162F462F4F7707
:1029400061E070E0C9DF1E8BDF91CF911F91089588
:10295000EF92FF920F931F93CF93DF937C018B0134
:10296000EA01FC01668983E994E010DF612F70E0E1
:1029700083E994E0EBDEB801772783E994E0E6DEB3
:102980006D2F70E083E994E0E1DEBE01772783E9F3
:1029900094E0DCDE83E994E077DFF7018387DF9161
:1029A000CF911F910F91FF90EF900895CF92DF92FA
:1029B000EF92FF920F931F93CF93DF93EC018B0164
:1029C00069017A016E8983E994E0E0DE612F70E0AD
:1029D00083E994E0BBDEB801772783E994E0B6DEB3
:1029E0004F2D55276627772783E994E0A7DE4E2DE4
:1029F00050E060E070E083E994E0A0DE4D2D50E00F
:102A000060E070E083E994E099DEB701A601552704
:102A10006627772783E994E091DE83E994E034DF49
:102A20008B87DF91CF911F910F91FF90EF90DF90F7
:102A3000CF9008950F931F93CF93DF938C01EB01F9
:102A4000FC01668983E994E0A1DE6D2F70E083E9E3
:102A500094E07CDEBE01772783E994E077DE83E9AA
:102A600094E012DFF801838741E0668983E994E00E
:102A700009DF83E994E0BFDBDF91CF911F910F91D4
:102A800008950F931F93CF93DF938C01EB01FC010B
:102A9000668983E994E07ADE6D2F70E083E994E043
:102AA00055DEBE01772783E994E050DE83E994E0A8
:102AB000EBDEF801838742E0668983E994E0E2DE99
:102AC00083E994E098DBD82FF0E0CF2F83E994E0FE
:102AD00092DB8C2B9D2BDF91CF911F910F9108954D
:102AE000CF93DF93EC01AE8DBF8D9A01AB010E94B5
:102AF00039399B01AC016CE670E0CE0157DF41E053
:102B000066E870E0CE01E8DE40E467E870E0CE0100
:102B1000DF91CF91E1CECF93DF93EC016BE070E0DA
:102B200089DF89A368E070E0CE0184DF8AA349A130
:102B30004F776BE070E0CE01CFDE4AA14370445F77
:102B400068E070E0CE01C8DE41E06DE470E0CE01E7
:102B5000C3DE68ED70E0CE016DDF482F67E470E002
:102B6000CE01DF91CF91B8CECF93DF93EC016E8988
:102B700083E994E00BDE60E070E083E994E0E6DD59
:102B800069E870E083E994E0E1DD83E994E07CDECC
:102B90008B8741E16E8983E994E074DE83E994E0F8
:102BA0002ADB8C8783E994E026DB83E994E023DB4E
:102BB0008D8783E994E01FDB1E868F8783E994E08D
:102BC0001ADB2E853F85822B932B9F878E8783E987
:102BD00094E011DB83E994E00EDB83E994E00BDB06
:102BE000188A898B83E994E006DB28893989822B4E
:102BF000932B998B888B83E994E0FDDA83E994E049
:102C0000FADA83E994E0F7DA83E994E0F4DA83E925
:102C100094E0F1DA1A8A8B8B83E994E0ECDA2A8962
:102C20003B89822B932B9B8B8A8B83E994E0E3DA9D
:102C30001C8A8D8B83E994E0DEDA2C893D89822B16
:102C4000932B9D8B8C8BDF91CF910895CF93DF9346
:102C5000EC012E853F852115310589F14889598977
:102C60006C897D89CB01A0E0B0E0840F951FA11D88
:102C7000B11D009741E0A407B10520F08FEF9FEF51
:102C8000A0E0B0E07727662740E050E00E940039DE
:102C9000211531054105510591F060E070E080E0BB
:102CA0009AE00E9400392115310581E0480751055D
:102CB00020F02FEF3FEF40E050E0A90102C040E0DC
:102CC00050E864E570E0CE01DF91CF9141CECF9323
:102CD000DF93EC012A893B89ABEDB7E00E942A39EA
:102CE000DC01CB019C5FAF4FBF4F2BE0B695A795A2
:102CF000979587952A95D1F799838883EC858E2FB0
:102D000090E0FC013197E231F105E8F48827EE58B4
:102D1000FF4F8F4F0C94223985E016C08DE014C010
:102D20008AE012C084E010C082E00EC087E00CC0D0
:102D300089E00AC083E008C08D85811102C086E069
:102D400003C01A8202C08FEF8A836C897D8980E07C
:102D500090E00E94D43720E030E040E05CE30E9445
:102D60008A386B837C838D839E836889798980E030
:102D700090E00E94D43720E030E040E05CE30E9425
:102D80008A386F83788789879A87DF91CF910895F2
:102D9000CF93DF93EC0161110AC0CE01E5DE88A17B
:102DA000811124C0CE01B7DE81E088A31FC00E943C
:102DB00057247B8F6A8F61E370E0CE013BDE80FF9A
:102DC000ECCFCE0163DD8823B1F381E0898F8FEFF3
:102DD0008A83198218821B821C821D821E821F8296
:102DE000188619861A8680E090E00BC0CE012EDF8F
:102DF000CE016DDF41E066E870E0CE016DDD8881D7
:102E00009981DF91CF9108959C01BC017727CB0177
:102E1000A0E0B0E004C0880F991FAA1FBB1F3A951D
:102E2000D2F7BC01CD016F5F7F4F8F4F9F4F089549
:102E3000CF92DF92EF92FF926115710581059105A6
:102E4000D1F0DC01CB010197A109B10920E030E00C
:102E50006C017D01CC24CD28CE28CF2839F0B69541
:102E6000A795979587952F5F3F4FF2CF322F222757
:102E7000822B932B02C080E090E0FF90EF90DF90D8
:102E8000CF900895CF93C62FFC01248D358D40E05F
:102E900050E060E070E080E090E40E940039A0E043
:102EA000B9E00E9439399B01AC0186E056954795FF
:102EB000379527958A95D1F7CF5FAC2FAA0FB0E051
:102EC0000E94393926E096958795779567952A95DA
:102ED000D1F7CF9108954F925F926F927F928F9228
:102EE0009F92AF92BF92CF92DF92EF92FF92CF93D9
:102EF000DF93413B21E152076105710508F49AC057
:102F00006A017B0120EBC21A21E1D20AE108F10833
:102F100021EEC21628ECD20620E1E206F10408F008
:102F200089C0EC0160E670E085DD682FCE01AADF84
:102F30002B013C014B015C01B694A79497948794B4
:102F4000C501B4017058814C9F4FA30192010E94AA
:102F500000392F3F31054105510529F020F02FEFB1
:102F600030E040E050E0422F6BE470E0CE01B4DC92
:102F7000C501B401705F8F4F9F4FA30192010E9462
:102F80000039CA01B90154DFAC016AE570E0CE0135
:102F9000DFDCF694E794D794C7949CE0CC0CDD1C5E
:102FA000EE1CFF1C9A95D1F7C501B4016C0D7D1D77
:102FB0008E1D9F1DA30192010E940039CA01B90113
:102FC00037DFAC016EE570E0CE01C2DC63E670E095
:102FD000CE0130DD682FCE0155DF4B015C012B01A6
:102FE0003C017694679457944794C301B201705F93
:102FF0008F4F9F4FA50194010E940039CA01B9016A
:1030000017DFAC016CE570E0CE01A2DCC301B201B8
:103010006C0D7D1D8E1D9F1DA50194010E94003920
:10302000CA01B90105DFAC0161E670E0CE0190DCB8
:1030300081E001C080E0DF91CF91FF90EF90DF90C1
:10304000CF90BF90AF909F908F907F906F905F9048
:103050004F9008958F929F92AF92BF92CF92DF923E
:10306000EF92FF920F937C0160E670E0E3DC682F43
:10307000C70108DF4B015C016EE570E0C70101DDAF
:10308000C3DE9B01AC01C501B4010E944339385F26
:103090004F4F5F4F6F4F7F4F8F4F9F4F0CE00E94FE
:1030A0006C3949015A01D501C4018852974FAF4F7D
:1030B000BF4FBC01CD01660F771F881F991F0F916D
:1030C000FF90EF90DF90CF90BF90AF909F908F9048
:1030D0000895CF92DF92EF92FF920F931F93CF93B9
:1030E000DF93EC018B01B6DF6B017C010130110530
:1030F00041F10230110509F444C00115110509F030
:103100006BC047E060E670E0CE01E6DB45E063E6D9
:1031100070E0CE01E1DB48E369E670E0CE01DCDB84
:1031200047E068E770E0CE01D7DB45E069E770E093
:10313000CE01D2DB46E06AE770E0CE01CDDB46E0AF
:103140003FC04BE060E670E0CE01C6DB49E063E6DD
:1031500070E0CE01C1DB48E769E670E0CE01BCDB80
:103160004BE068E770E0CE01B7DB49E069E770E06B
:10317000CE01B2DB4AE06AE770E0CE01ADDB4AE0A7
:103180001FC04FE060E670E0CE01A6DB4DE063E6D5
:1031900070E0CE01A1DB48EB69E670E0CE019CDB7C
:1031A0004FE068E770E0CE0197DB4DE069E770E043
:1031B000CE0192DB4EE06AE770E0CE018DDB4EE09F
:1031C0006BE770E0CE0188DBB701A601CE0183DE9C
:1031D0001CA30BA381E001C080E0DF91CF911F9180
:1031E0000F91FF90EF90DF90CF9008951F93CF93B2
:1031F000DF93EC01162F6FE071E043DC8C3C9A4EBC
:1032000049F540E060E070E0CE0166DB84E690E0E6
:103210000E94C12441E060E070E0CE015DDB61E02E
:1032200070E080E090E00E9488240E9457247B8F09
:103230006A8F65EE70E0CE01FDDB80FD07C0CE0138
:1032400025DB8823B1F381E0898F04C08B85811150
:10325000F6CF02C080E09FC0112351F06EE270E013
:10326000CE01E8DB482F41606EE270E0CE0134DB36
:1032700066E070E0CE0105DC9D8F8C8F6EED70E016
:10328000CE01FFDB9F8F8E8F40E05AE064E270E05A
:10329000CE015EDB42E061E370E0CE011DDB48E081
:1032A00066E370E0CE0118DB40E167E370E0CE0139
:1032B00013DB41E069E370E0CE010EDB4FEF6EE31C
:1032C00070E0CE0109DB40E06FE370E0CE0104DB8B
:1032D00042E060E470E0CE01FFDA40E050E060E5FB
:1032E00070E0CE0135DB40E050E062E570E0CE01F9
:1032F0002FDB48E367E570E0CE01EEDA48E651E007
:1033000064E670E0CE0124DB40EC50E066E670E05D
:10331000CE011EDB41E061E770E0CE01DDDA41E085
:103320006CE770E0CE01D8DA42E06EE770E0CE01E3
:10333000D3DA40E062E870E0CE01CEDA41E067E740
:1033400070E0CE01C9DA4BE861E870E0CE01C4DA82
:1033500040E058EC64E570E0CE01FADA42E06FE458
:1033600070E0CE01B9DA62E070E0CE01B2DE40E595
:1033700053EC60E070E0CE01AEDD62E270E0CE01C1
:1033800080DBAC01440F551F440F551F6EE170E008
:10339000CE01DEDA81E0DF91CF911F910895EF92A7
:1033A000FF921F93CF93DF931F92CDB7DEB77C01BF
:1033B000162FFC01618183E994E04983E7D9612FED
:1033C00083E994E020D84981642F83E994E01BD8F5
:1033D00083E994E059DAF70180830F90DF91CF9170
:1033E0001F91FF90EF9008951F93CF93DF93EC010F
:1033F000162F462F4F776AE8D2DF1983DF91CF91DE
:103400001F910895FF920F931F93CF93DF938C0129
:10341000F62EEA01FC01618183E994E0B7D96F2DB2
:1034200083E994E00E9403126D2F70E083E994E039
:103430008DD9BE01772783E994E088D983E994E0A8
:1034400023DAF8018083DF91CF911F910F91FF90D4
:103450000895CF92DF92EF92FF921F93CF93DF9365
:10346000EC01162F69017A01698183E994E08ED914
:10347000612F83E994E00E9403124F2D55276627A0
:10348000772783E994E05AD94E2D50E060E070E050
:1034900083E994E053D94D2D50E060E070E083E97A
:1034A00094E04CD9B701A60155276627772783E911
:1034B00094E044D983E994E0E7D98883DF91CF9100
:1034C0001F91FF90EF90DF90CF9008951F93CF93BF
:1034D000DF93EC01162F698183E994E057D9612FBE
:1034E00083E994E00E94031283E994E0CDD98883B4
:1034F00041E0698183E994E0C5D983E994E00E94C1
:10350000FB10DF91CF911F9108951F93CF93DF930D
:10351000EC01162F698183E994E038D9612F83E9A2
:1035200094E00E94031283E994E0AED9888342E0DC
:10353000698183E994E0A6D983E994E00E94FB10B5
:10354000D82F80E0C82F83E994E00E94FB108C2BD9
:103550009D2BDF91CF911F910895CF92DF92EF9233
:10356000FF921F93CF93DF931F921F92CDB7DEB7C9
:103570007C01D62E142FFC01618183E994E029831C
:103580005A8304D96D2D83E994E00E940312C12E61
:103590005A81D52E2981120F1C1541F0F601619137
:1035A0006F0183E994E00E940312F6CF83E994E06F
:1035B0006BD9F70180830F900F90DF91CF911F910E
:1035C000FF90EF90DF90CF900895CF92DF92EF922F
:1035D000FF920F931F93CF93DF931F92CDB7DEB768
:1035E0006C01F62E142F022FFC01618183E994E017
:1035F0005983CCD86F2D83E994E00E94031283E9AC
:1036000094E042D9F6018083402F618183E994E000
:1036100039D9E12E5981F52E100F1E1541F083E99D
:1036200094E00E94FB10F70181937F01F6CF0F9089
:10363000DF91CF911F910F91FF90EF90DF90CF908E
:103640000895CF92DF92EF92FF92CF93DF93EC0138
:103650006A017B0120E030E0A901C701B6010E94A8
:10366000A43787FD1AC028EB3EEF4FEF53E4C701A4
:10367000B6010E948638181684F020E030E040E061
:1036800053E4C701B6010E948A380E94A837AB01F3
:1036900064E4CE01B7DE81E001C080E0DF91CF912C
:1036A000FF90EF90DF90CF9008956115710511F4B0
:1036B00060E504C06130710529F460E707DF8F5FC2
:1036C000880F08958FEF0895CF92DF92EF92FF92C7
:1036D000CF93DF93EC016A017B0141E060E85FDE9C
:1036E00041E06FEFCE015BDE40E060E0CE0157DEEF
:1036F0004F8161E9CE0153DE41E060E0CE014FDE53
:1037000040E06FEFCE014BDE40E060E8CE0147DEE7
:10371000C114D104E104F10499F068EFCE01F5DEA3
:10372000009739F0DC01A70196010E9439396B013D
:103730007C01A701960164E0CE018BDE44E001C06C
:1037400042E060E0CE01DF91CF91FF90EF90DF90FB
:10375000CF9025CE0F931F93CF93DF93EC010E9460
:1037600057247E836D8363E1CE01B0DE8770A1F4C0
:103770008A819B81892BB9F30E9457242D813E8138
:10378000621B730B8A819B818617970760F781E024
:103790008C838FEF9FEF09C06EE1CE01B6DE8C0106
:1037A00041E06BE0CE01FBDDC801DF91CF911F91BD
:1037B0000F910895EF92FF920F931F93CF93DF9392
:1037C000EC017B018A0141E060E8E9DD41E06FEF57
:1037D000CE01E5DD40E060E0CE01E1DD46E06FEFE7
:1037E000CE01DDDD63E8CE0171DE482F446063E881
:1037F000CE01D5DD47E06FEFCE01D1DD41E061E8DC
:10380000CE01CDDD41E060E8CE01C9DD4BE664E9E3
:10381000CE01C5DD40E063E8CE01C1DD0E94572442
:103820007E836D8363E8CE0151DE811111C08A81F0
:103830009B81892BB9F30E9457242D813E81621B05
:10384000730B8A819B818617970760F780E032C0EF
:1038500041E063E8CE01A3DD62E9CE0137DE982FB7
:103860009F77F7019083982F991F9927991FF80147
:10387000908340E061E8CE0192DD46E06FEFCE013B
:103880008EDD63E8CE0122DE482F4B7F63E8CE0158
:1038900086DD41E06FEFCE0182DD41E060E0CE01E8
:1038A0007EDD40E06FEFCE017ADD40E060E8CE01E2
:1038B00076DD81E0DF91CF911F910F91FF90EF9026
:1038C0000895CF93DF93EB0161E000DE84FB99273D
:1038D00090F9988383FB992790F99A8382FB992723
:1038E00090F9998386FB992790F99B83982F991FCC
:1038F0009927991F9C83DF91CF9108959C013327CD
:10390000A90102C0440F551F9A95E2F7CA0101961A
:1039100008950F931F930097C9F0AC0141505109CE
:1039200060E070E080E090E08A019B010027012BBD
:10393000022B032B31F076956795579547950196A5
:10394000F3CF982F8827842B952B02C080E090E03E
:103950001F910F9108958F929F92AF92BF92CF9235
:10396000DF92EF92FF92CF93DF93EC01A62FB0E0AE
:1039700020E03FE24AE350E00E9439396C507E4F2C
:103980008F4F9F4F28EEC22E23E0D22EE12CF12C38
:10399000A70196010E94003949015A01B694A794E3
:1039A00097948794DE010E943939680D791D8A1D2C
:1039B0009B1DA70196010E940039CA01B901DF9140
:1039C000CF91FF90EF90DF90CF90BF90AF909F90FE
:1039D0008F900895EF92FF920F931F93CF93DF93F1
:1039E0008C017B01EA0160E070E05FDE90E099838A
:1039F000888366E4C8016ADD282F30E0C90101969A
:103A00009D838C836881A7DF6A877B878C879D87EE
:103A100061E5C8017ADD72DF9F838E8368819BDF59
:103A20006E877F87888B998B60E7C8014FDD8F5F3A
:103A3000880F90E09B838A8361E7C80166DD5EDFC3
:103A400099878887F7012381222331F02E813F81D6
:103A5000821B930B998788876A81888599857BDF8C
:103A60006A8B7B8B8C8B9D8BDF91CF911F910F91FC
:103A7000FF90EF900895CF92DF92EF92FF920F9315
:103A80001F93CF93DF93CDB7DEB76B970FB6F89444
:103A9000DEBF0FBECDBF8C01BE01695E7F4F11DF5F
:103AA000AE014F5F5F4FBE01695E7F4FC80192DF7D
:103AB0008F89882359F08B859C85AD85BE85BC0197
:103AC000CD016C57724F8F4F9F4F04C066E37BE070
:103AD00080E090E0298D222379F0CB84DC84ED8492
:103AE000FE8422EBC20E22E0D21EE11CF11CCC0CA3
:103AF000DD1CEE1CFF1C0DC0288D222371F0CB8431
:103B0000DC84ED84FE84E4E9CE0EE2E0DE1EE11CFE
:103B1000F11C6C0D7D1D8E1D9F1D2A8D222371F0C1
:103B2000CF84D888E988FA88F4E9CF0EF2E0DF1E66
:103B3000E11CF11C6C0D7D1D8E1D9F1D2B8D222304
:103B400071F0CB88DC88ED88FE8826E2C20E22E088
:103B5000D21EE11CF11C6C0D7D1D8E1D9F1DF801F8
:103B600060877187828793876B960FB6F894DEBF64
:103B70000FBECDBFDF91CF911F910F91FF90EF90BE
:103B8000DF90CF9008954F925F926F927F928F92C5
:103B90009F92AF92BF92CF92DF92EF92FF924B0132
:103BA0005C01A42FB0E020E03FE24AE350E00E9435
:103BB00039396C507E4F8F4F9F4F28EE33E040E0F5
:103BC00050E00E94003969017A0129013A01769496
:103BD000679457944794A8EEB3E0A50194010E941E
:103BE0003939640D751D861D971DA70196010E9428
:103BF0000039CA01B901FF90EF90DF90CF90BF90DC
:103C0000AF909F908F907F906F905F904F900895AE
:103C10008F929F92AF92BF92CF92DF92EF92FF92DC
:103C20000F931F93CF93DF93CDB7DEB76B970FB68C
:103C3000F894DEBF0FBECDBF40322EE452076105BF
:103C4000710508F477C04A015B017C01BE01695E21
:103C50007F4F37DEAE014F5F5F4FBE01695E7F4F22
:103C6000C701B8DE8F89882349F00B851C852D8517
:103C70003E850A5C144F2F4F3F4F04C008EE18E0FA
:103C800020E030E0898D882369F08B859C85AD85A7
:103C9000BE858E549D4FAF4FBF4F880F991FAA1FEF
:103CA000BB1F0BC0888D882361F08B859C85AD85FB
:103CB000BE858C569D4FAF4FBF4F080F191F2A1F4F
:103CC0003B1FCA8CCC2061F08F859889A989BA895D
:103CD0008C569D4FAF4FBF4F080F191F2A1F3B1F18
:103CE000DB8CDD2021F10A5D1D4F2F4F3F4F8016E9
:103CF0009106A206B306F0F0C501B401601B710B7A
:103D0000820B930B4B813FDF9B01CC2021F02F8155
:103D10003885260F371FC901FCDDAC0161E7C701FB
:103D200071DBF70180869186A286B38604C0DD240C
:103D3000D39401C0D12C8D2D6B960FB6F894DEBFB5
:103D40000FBECDBFDF91CF911F910F91FF90EF90EC
:103D5000DF90CF90BF90AF909F908F900895CF93BA
:103D6000DF93EC01462F416060E019DBA0D57E8334
:103D70006D8363E1CE01AADB877081F48A819B8128
:103D8000892BB9F394D52D813E81621B730B8A81F7
:103D90009B818617970768F780E009C041E06BE0D8
:103DA000CE01FDDA40E060E0CE01F9DA81E0DF919A
:103DB000CF910895FF920F931F93CF93DF93CDB7C9
:103DC000DEB728970FB6F894DEBF0FBECDBF8C01CB
:103DD000662339F069E87ADB482F416069E8C80159
:103DE000DEDA40E068E8C801DADA41E060E8C801FC
:103DF000D6DA41E06FEFC801D2DA40E060E0C801F6
:103E0000CEDA61E9C80162DBF801878341E060E056
:103E1000C801C5DA40E06FEFC801C1DA40E060E8F0
:103E2000C801BDDA60E6C80151DB482F426160E697
:103E3000C801B5DA40E050E060E87EE3C80101DC8B
:103E40004FEF61E0C801ABDAAE01495F5F4FBE01E1
:103E5000685F7F4FC801AEDC811102C0F12CCEC17A
:103E600026E0AE014F5F5F4F60EBC801AEDB41E083
:103E70006FEFC80194DA40E06FE4C80190DA4CE2D9
:103E80006EE4C8018CDA40E06FEFC80188DA44EBD9
:103E900066EBC80184DA8F81811102C040E001C065
:103EA0004CE0A88580E090E061E070E0282F269546
:103EB00026952695582F5770E1E0F0E0EC0FFD1F96
:103EC000E20FF11D841710F09A130AC09B0101C084
:103ED000220F5A95EAF7209530812323208309C0C9
:103EE000208130E002C0359527955A95E2F720FDF4
:103EF0009F5F8F5F8033D1F626E0AE014F5F5F4F4B
:103F000060EBC8012ADB41E06FEFC80148DA40E00E
:103F100060E0C80144DA40E06FEFC80140DA40E0F9
:103F200069E0C8013CDA40E060E1C80138DA40E00D
:103F300061E1C80134DA41E064E2C80130DA4FEFF0
:103F400065E2C8012CDA40E065E7C80128DA41E003
:103F50006FEFC80124DA4CE26EE4C80120DA40E0D9
:103F600068E4C8011CDA40E260E3C80118DA40E006
:103F70006FEFC80114DA49E060E3C80110DA40E0ED
:103F800064E5C8010CDA44E061E3C80108DA43E003
:103F900062E3C80104DA43E860E4C80100DA45E2FC
:103FA00066E4C801FCD940E060E6C801F8D940E009
:103FB00067E2C801F4D946E060E5C801F0D940E005
:103FC00061E5C801ECD946E962E5C801E8D948E0F5
:103FD00066E5C801E4D940E367E5C801E0D940E0FF
:103FE00061E6C801DCD940E062E6C801D8D940E00A
:103FF00064E6C801D4D940E065E6C801D0D940EAFA
:1040000066E6C801CCD941E06FEFC801C8D942E3E8
:1040100062E2C801C4D944E167E4C801C0D94FEFE6
:1040200069E4C801BCD940E06AE4C801B8D940E0FD
:104030006FEFC801B4D94AE06AE7C801B0D940E0DF
:104040006BE7C801ACD941E268E7C801A8D941E0F3
:104050006FEFC801A4D944E363E2C801A0D940E0EE
:1040600062E4C8019CD94FEF64E4C80198D946E2E4
:1040700065E4C80194D945E066E4C80190D940E4FC
:1040800060E4C8018CD946E06EE0C80188D94AE1F5
:1040900060E2C80184D940E463E4C80180D940E00B
:1040A0006FEFC8017CD943E064E3C80178D944E4E8
:1040B00065E3C80174D941E06FEFC80170D944E0ED
:1040C00061E3C8016CD949E06BE4C80168D945E0F7
:1040D0006CE4C80164D944E06DE4C80160D940E0F3
:1040E0006FEFC8015CD940E064E4C80158D940E2F0
:1040F00065E4C80154D948E067E4C80150D948E2F2
:1041000068E4C8014CD940E067E6C80148D944E0FA
:1041100060E7C80144D941E061E7C80140D94EEFEA
:1041200062E7C8013CD940E066E7C80138D940E001
:1041300067E7C80134D941E06FEFC80130D941E0E9
:104140006DE0C8012CD940E06FEFC80128D941E0EB
:1041500060E8C80124D948EF61E0C80120D941E0F6
:104160006FEFC8011CD941E06EE8C80118D941E0E1
:1041700060E0C80114D940E06FEFC80110D940E0F9
:1041800060E8C8010CD944E06AE0C80108D964E8D5
:10419000C8019CD9482F4F7E64E8C80100D941E08E
:1041A0006BE0C801FCD8C80166DCF8016087718744
:1041B0008287938748EE61E0C801F1D8F801408515
:1041C000518562857385C80123DD41E061E0C80146
:1041D000E6D860E4C801C3DD882309F43FCE42E09D
:1041E00061E0C801DCD860E0C801B9DDF82E8823A1
:1041F00009F434CE48EE61E0C801D1D88F2D28965D
:104200000FB6F894DEBF0FBECDBFDF91CF911F91E7
:104210000F91FF900895CF93DF93EC01FA0120E016
:1042200030E040E85FE360817181828193810E9488
:10423000A437811140C08FE694E08CDABC0180E0A5
:1042400090E00E94D437688379838A839B8361E0FE
:1042500085E294E00E94C816BC0180E090E00E94D4
:10426000D4376C837D838E839F838BE794E072DAEF
:10427000BC0180E090E00E94D437688779878A8704
:104280009B8761E08AE494E00E94C816BC0180E04C
:1042900090E00E94D4376C877D878E879F8787E860
:1042A00094E058DABC0180E090E00E94D437688B3B
:1042B000798B8A8B9B8BDF91CF9108952F923F92C0
:1042C0004F925F926F927F928F929F92AF92BF9226
:1042D000CF92DF92EF92FF920F931F93CF93DF93D2
:1042E00000D01F921F92CDB7DEB77B015A0120E0AC
:1042F00030E040E85FE3F501608171818281938164
:104300000E94A437882309F4FCC08701C7014496A2
:10431000F7011192119211921192E817F907C9F75A
:104320009DE161E0892F9D83EFD39D819F5F9A324C
:10433000C1F79DE160E0892F9D8322D49D819F5F1D
:104340009A32C1F783E994E00E94BD138EE692E0B1
:104350009A838983EAE5F2E0FC83EB8384E6C82E46
:1043600082E0D82EE12CF12C95E2392E24EF822E1A
:1043700099249394412C512C30E8632E3FE3732E03
:104380004CE0242E61E0E981FA818191FA83E9838E
:10439000F7D36AE070E080E090E0BAD2E0FC3EC083
:1043A00069E283E994E00E94C613EB81FC812081DD
:1043B0003181229EC001239E900D1124F60160815F
:1043C00081599B4F11D8EB81FC8120813181229E44
:1043D000C001239E900D112461E081599B4FEADCBE
:1043E000811105C0F8014082518262827382EB81A3
:1043F000FC8120813181229EC001239E900D1124D9
:1044000081599B4FFC019382828240E050E0BA01C7
:104410005BD983E994E00E94441458C0EB81FC818D
:1044200020813181329EC001339E900D11248B5D1D
:104430009B4FFC01908E878A61E00E94F6188111E3
:1044400005C0F8014082518262827382EB81FC8157
:1044500020813181329EC001339E900D1124F601DE
:1044600060818B5D9B4F0E949914EB81FC812081C0
:104470003181329EC001339E900D112462E070E0C4
:104480008B5D9B4F0E946918EB81FC8120813181FB
:10449000329EC001339E900D112440E553EC60E044
:1044A00070E08B5D9B4F0E946B17EB81FC8120813C
:1044B0003181329EC001339E900D112442E350E0C1
:1044C00060E070E08B5D9B4F0E947015FFEFEF1A6C
:1044D000FF0A8B819C8102969C838B8392E0C90E9C
:1044E000D11C0C5F1F4FE5E0EE16F10409F04ACF36
:1044F00080E090E0A0E8BFE3F50180839183A28390
:10450000B3830F900F900F900F900F90DF91CF918A
:104510001F910F91FF90EF90DF90CF90BF90AF90E1
:104520009F908F907F906F905F904F903F902F90D3
:10453000089583E994E00E94AD1380E090E029E2C1
:10454000FC01E159FB4F21831382128214820C96E5
:1045500084329105A9F785E294E00E945E148AE412
:1045600094E00C945E14089508951F920F920FB674
:104570000F9211240BB60F922F933F934F935F939B
:104580006F937F938F939F93AF93BF93EF93FF931B
:10459000E0917702F09178021995FF91EF91BF9128
:1045A000AF919F918F917F916F915F914F913F91CB
:1045B0002F910F900BBE0F900FBE0F901F9018956C
:1045C0001F920F920FB60F9211240BB60F922F93DA
:1045D0003F934F935F936F937F938F939F93AF938B
:1045E000BF93EF93FF93E0917902F0917A021995CE
:1045F000FF91EF91BF91AF919F918F917F916F91BB
:104600005F914F913F912F910F900BBE0F900FBE76
:104610000F901F9018951F920F920FB60F921124B2
:104620000BB60F922F933F934F935F936F937F93AC
:104630008F939F93AF93BF93EF93FF93E0917B0290
:10464000F0917C021995FF91EF91BF91AF919F91ED
:104650008F917F916F915F914F913F912F910F902B
:104660000BBE0F900FBE0F901F9018951F920F92C8
:104670000FB60F9211240BB60F922F933F934F93C7
:104680005F936F937F938F939F93AF93BF93EF93BA
:10469000FF93E0917D02F0917E021995FF91EF91D9
:1046A000BF91AF919F918F917F916F915F914F914A
:1046B0003F912F910F900BBE0F900FBE0F901F9048
:1046C00018951F920F920FB60F9211240BB60F92EE
:1046D0002F933F934F935F936F937F938F939F930A
:1046E000AF93BF93EF93FF93E0917302F091740245
:1046F0001995FF91EF91BF91AF919F918F917F910C
:104700006F915F914F913F912F910F900BBE0F9042
:104710000FBE0F901F9018951F920F920FB60F9219
:1047200011240BB60F922F933F934F935F936F9388
:104730007F938F939F93AF93BF93EF93FF93E091FA
:104740007502F09176021995FF91EF91BF91AF91AB
:104750009F918F917F916F915F914F913F912F9199
:104760000F900BBE0F900FBE0F901F9018951F92C9
:104770000F920FB60F9211240BB60F922F933F9307
:104780004F935F936F937F938F939F93AF93BF9359
:10479000EF93FF93E0917F02F09180021995FF91D2
:1047A000EF91BF91AF919F918F917F916F915F91A9
:1047B0004F913F912F910F900BBE0F900FBE0F9016
:1047C0001F9018951F920F920FB60F9211240BB6DF
:1047D0000F922F933F934F935F936F937F938F939A
:1047E0009F93AF93BF93EF93FF93E0918102F0917A
:1047F00082021995FF91EF91BF91AF919F918F9197
:104800007F916F915F914F913F912F910F900BBED0
:104810000F900FBE0F901F9018951F920F920FB61A
:104820000F9211242F933F938F939F93AF93BF9336
:104830008091540590915505A0915605B09157056A
:104840003091530523E0230F2D3720F40196A11D4D
:10485000B11D05C026E8230F0296A11DB11D2093AE
:1048600053058093540590935505A0935605B09336
:1048700057058091580590915905A0915A05B0911E
:104880005B050196A11DB11D8093580590935905B4
:10489000A0935A05B0935B05BF91AF919F918F9103
:1048A0003F912F910F900FBE0F901F9018952FB72B
:1048B000F89460915405709155058091560590913A
:1048C00057052FBF08953FB7F894809158059091F0
:1048D0005905A0915A05B0915B0526B5A89B05C066
:1048E0002F3F19F00196A11DB11D3FBFBA2FA92F6F
:1048F000982F8827820F911DA11DB11DBC01CD01EC
:1049000042E0660F771F881F991F4A95D1F70895D7
:104910008F929F92AF92BF92CF92DF92EF92FF92CF
:104920006B017C01D0DF4B015C01C114D104E104B7
:10493000F104F1F018DEC7DFDC01CB018819990919
:10494000AA09BB09883E9340A105B10570F321E097
:10495000C21AD108E108F10888EE880E83E0981E9B
:10496000A11CB11CC114D104E104F10421F7DDCF75
:10497000FF90EF90DF90CF90BF90AF909F908F907F
:1049800008958230910538F0880F991F880F991F7C
:1049900005970197F1F70895789484B5826084BDF6
:1049A00084B5816084BD85B5826085BD85B5816033
:1049B00085BDEEE6F0E0808181608083E1E8F0E093
:1049C0001082808182608083808181608083E0E8C2
:1049D000F0E0808181608083E1EBF0E080818460A1
:1049E0008083E0EBF0E0808181608083E1E9F0E0AA
:1049F000808182608083808181608083E0E9F0E053
:104A0000808181608083E1EAF0E080818260808340
:104A1000808181608083E0EAF0E080818160808332
:104A2000E1E2F1E080818260808380818160808327
:104A3000E0E2F1E0808181608083EAE7F0E080815C
:104A400084608083808182608083808181608083B4
:104A50008081806880831092C100089590E0FC01FD
:104A60003197E231F10508F04EC08827EC57FF4F2F
:104A70008F4F0C942239809180008F7703C08091F2
:104A800080008F7D80938000089580918000877FD3
:104A9000F9CF84B58F7702C084B58F7D84BD08952A
:104AA0008091B0008F7703C08091B0008F7D80939C
:104AB000B0000895809190008F7707C0809190009A
:104AC0008F7D03C080919000877F80939000089530
:104AD0008091A0008F7707C08091A0008F7D03C0D8
:104AE0008091A000877F8093A0000895809120018D
:104AF0008F7707C0809120018F7D03C080912001B6
:104B0000877F809320010895CF93DF9390E0FC018D
:104B1000EE56FE4F2491FC01E852FE4F849188230B
:104B200061F190E0880F991FFC01E85CFD4FC59191
:104B3000D491FC01E25EFD4FA591B491611109C0D1
:104B40009FB7F8948881209582238883EC912E2347
:104B50000BC0623061F49FB7F8943881822F809542
:104B600083238883EC912E2B2C939FBF06C08FB795
:104B7000F894E8812E2B28838FBFDF91CF91089581
:104B80001F93CF93DF93282F30E0F901E45BFE4FB2
:104B90008491F901EE56FE4FD491F901E852FE4F8F
:104BA000C491CC23C1F0162F811158DFEC2FF0E017
:104BB000EE0FFF1FE25EFD4FA591B4918FB7F89401
:104BC000111105C09C91ED2FE095E92302C0EC91F5
:104BD000ED2BEC938FBFDF91CF911F910895FC01D6
:104BE000918D228D892F90E0805C9F4F821B9109CF
:104BF0008F7399270895FC01918D828D981731F05C
:104C0000828DE80FF11D858D90E008958FEF9FEF65
:104C10000895FC01918D828D981761F0828DDF01DE
:104C2000A80FB11D5D968C91928D9F5F9F73928F9F
:104C300090E008958FEF9FEF0895FC01848DDF01D0
:104C4000A80FB11DA35ABF4F2C91848D90E00196FF
:104C50008F739927848FA689B7892C93A089B189EE
:104C60008C9180648C93938D848D981306C00288F8
:104C7000F389E02D80818F7D80830895CF93DF932A
:104C8000EC01888D8823C1F0EA89FB89808185FD4C
:104C900005C0A889B9898C9186FD0EC00FB607FCA6
:104CA000F5CF808185FFF2CFA889B9898C9185FFE6
:104CB000EDCFCE01C2DFE8CFDF91CF910895EF9223
:104CC000FF920F931F93CF93DF93EC0181E0888FC6
:104CD0009B8D8C8D981305C0E889F989808185FDAD
:104CE00023C0F62E0B8D10E00F5F1F4F0F7311279F
:104CF000E02E8C8DE8120BC00FB607FCFACFE889C6
:104D0000F989808185FFF5CFCE0197DFF2CF8B8DBA
:104D1000FE01E80FF11DE35AFF4FF0820B8FEA8985
:104D2000FB898081806207C0EE89FF896083E88902
:104D3000F98980818064808381E090E0DF91CF9168
:104D40001F910F91FF90EF900895CF92DF92EF9215
:104D5000FF921F93CF93DF93EC016A017B01122F27
:104D6000E889F98982E080834115514E610571051A
:104D7000B1F060E079E08DE390E0A70196010E9438
:104D80000039DA01C9010197A109B109B695A795C2
:104D900097958795AC01411580E15807A8F0E889FF
:104DA000F989108260E874E88EE190E0A70196012D
:104DB0000E940039BA01A9014150510961097109E4
:104DC0007695679557954795EC85FD855083EE85DB
:104DD000FF854083188EEC89FD891083EA89FB8961
:104DE000808180618083EA89FB89808188608083FB
:104DF000EA89FB89808180688083EA89FB898081D8
:104E00008F7D8083DF91CF911F91FF90EF90DF9096
:104E1000CF9008951F920F920FB60F9211240BB6E8
:104E20000F922F938F939F93EF93FF93E0916C05D5
:104E3000F0916D058081E0917205F091730582FD1E
:104E400012C09081809175058F5F8F7320917605D8
:104E5000821751F0E0917505F0E0E45AFA4F958F12
:104E60008093750501C08081FF91EF919F918F9193
:104E70002F910F900BBE0F900FBE0F901F901895A3
:104E80001F920F920FB60F9211240BB60F922F9311
:104E90003F934F935F936F937F938F939F93AF93C2
:104EA000BF93EF93FF938CE595E0C7DEFF91EF9101
:104EB000BF91AF919F918F917F916F915F914F9132
:104EC0003F912F910F900BBE0F900FBE0F901F9030
:104ED0001895ECE5F5E01382128288EE93E0A0E0ED
:104EE000B0E084839583A683B7838BE193E09183BD
:104EF000808385EC90E09587848784EC90E09787A9
:104F0000868780EC90E0918B808B81EC90E0938B96
:104F1000828B82EC90E0958B848B86EC90E0978B73
:104F2000868B118E128E138E148E08951F920F92FF
:104F30000FB60F9211240BB60F922F938F939F935E
:104F4000EF93FF93E0910906F0910A068081E091CA
:104F50000F06F091100682FD12C09081809112061A
:104F60008F5F8F7320911306821751F0E091120624
:104F7000F0E0E750FA4F958F8093120601C08081D0
:104F8000FF91EF919F918F912F910F900BBE0F90FA
:104F90000FBE0F901F9018951F920F920FB60F9291
:104FA00011240BB60F922F933F934F935F936F9300
:104FB0007F938F939F93AF93BF93EF93FF9389EF6B
:104FC00095E03BDEFF91EF91BF91AF919F918F9163
:104FD0007F916F915F914F913F912F910F900BBEF9
:104FE0000F900FBE0F901F901895E9EFF5E0138218
:104FF000128288EE93E0A0E0B0E084839583A683DC
:10500000B7838BE193E0918380838DEC90E095876B
:1050100084878CEC90E09787868788EC90E0918B72
:10502000808B89EC90E0938B828B8AEC90E0958B5F
:10503000848B8EEC90E0978B868B118E128E138E64
:10504000148E08951F920F920FB60F9211240BB673
:105050000F922F938F939F93EF93FF93E091A60668
:10506000F091A7068081E091AC06F091AD0682FD3B
:1050700012C090818091AF068F5F8F732091B00630
:10508000821751F0E091AF06F0E0EA56F94F958FA4
:105090008093AF0601C08081FF91EF919F918F9126
:1050A0002F910F900BBE0F900FBE0F901F90189571
:1050B0001F920F920FB60F9211240BB60F922F93DF
:1050C0003F934F935F936F937F938F939F93AF9390
:1050D000BF93EF93FF9386E996E0AFDDFF91EF91E9
:1050E000BF91AF919F918F917F916F915F914F9100
:1050F0003F912F910F900BBE0F900FBE0F901F90FE
:105100001895E6E9F6E01382128288EE93E0A0E0BB
:10511000B0E084839583A683B7838BE193E091838A
:10512000808385ED90E09587848784ED90E0978774
:10513000868780ED90E0918B808B81ED90E0938B62
:10514000828B82ED90E0958B848B86ED90E0978B3F
:10515000868B118E128E138E148E08951F920F92CD
:105160000FB60F9211240BB60F922F938F939F932C
:10517000EF93FF93E0914307F09144078081E09122
:105180004907F0914A0782FD12C0908180914C0737
:105190008F5F8F7320914D07821751F0E0914C077C
:1051A000F0E0ED5CF84F958F80934C0701C0808153
:1051B000FF91EF919F918F912F910F900BBE0F90C8
:1051C0000FBE0F901F9018951F920F920FB60F925F
:1051D00011240BB60F922F933F934F935F936F93CE
:1051E0007F938F939F93AF93BF93EF93FF9383E34B
:1051F00097E023DDFF91EF91BF91AF919F918F9148
:105200007F916F915F914F913F912F910F900BBEC6
:105210000F900FBE0F901F901895E3E3F7E01382F5
:10522000128288EE93E0A0E0B0E084839583A683A9
:10523000B7838BE193E09183808385E391E0958749
:10524000848784E391E09787868780E391E0918B60
:10525000808B81E391E0938B828B82E391E0958B4D
:10526000848B86E391E0978B868B118E128E138E42
:10527000148E08958F929F92AF92BF92CF92DF9239
:10528000EF92FF920F931F93CF93DF937C018B01DB
:105290006C0182E0C80ED11C4701E5E08E0E911C26
:1052A000C0E0D0E0F60161916F014AE050E0C80132
:1052B000C6D05C016EE2C80167D08A0D9B1DC80F85
:1052C000D91FC814D90471F74AE050E0F70165818D
:1052D000C801B5D08C0F9D1FDF91CF911F910F9109
:1052E000FF90EF90DF90CF90BF90AF909F908F9006
:1052F0000895E0EDF7E08BE293E0918380831282E2
:105300001382148215820895CF92DF92EF92FF925A
:105310000F931F93CF93DF936C017A018B01C0E051
:10532000D0E0CE15DF0589F0D8016D918D01D60151
:10533000ED91FC910190F081E02DC6011995892B2A
:1053400011F47E0102C02196ECCFC701DF91CF910D
:105350001F910F91FF90EF90DF90CF90089561150E
:10536000710579F0FB0101900020E9F73197AF0159
:10537000461B570BDC01ED91FC910280F381E02D7F
:10538000199480E090E00895DC01ED91FC9101908A
:10539000F081E02D19944F925F926F927F92EF927D
:1053A000FF920F931F93CF93DF93CDB7DEB7A197F3
:1053B0000FB6F894DEBF0FBECDBF7C01FA01CB0162
:1053C00019A2223008F42AE08E010F5D1F4F422EF1
:1053D000512C612C712CBF01A30192010E94003954
:1053E000F901CA01015011096A3014F4605D01C06D
:1053F000695CD8016C93232B242B252B61F7B80112
:10540000C701ADDFA1960FB6F894DEBF0FBECDBFCA
:10541000DF91CF911F910F91FF90EF907F906F9050
:105420005F904F9008952115310541F4DC01ED9115
:10543000FC910190F081E02D642F1994ACCF9A017A
:10544000462F50E060E070E0EECF8230A9F028F403
:10545000882349F0813051F00895843021F1E8F03B
:10546000853039F1089510926E00089580916F0093
:105470008D7F80936F000895809170008D7F809361
:10548000700081E08093B0008091B100887F8460DB
:105490008093B1001092B3000895809171008D7FC8
:1054A000809371000895809172008D7F80937200C7
:1054B0000895809173008D7F809373000895CF933A
:1054C000C82F809183028C1307C0E2E5F2E0E491DB
:1054D0008FEF8093830201C0EFEF8E2FB6DF60E085
:1054E0008C2FCF914DCB1F920F920FB60F9211249C
:1054F0000BB60F922F933F934F935F936F937F93CE
:105500008F939F93AF93BF93EF93FF938091D907AE
:105510009091DA07A091DB07B091DC07892B8A2BE9
:105520008B2B51F18091D607E091D707F091D807E6
:105530009081892780838091D9079091DA07A09183
:10554000DB07B091DC07181619061A061B06BCF417
:105550008091D9079091DA07A091DB07B091DC0721
:105560000197A109B1098093D9079093DA07A09315
:10557000DB07B093DC0703C080918302A0DFFF91BB
:10558000EF91BF91AF919F918F917F916F915F91BB
:105590004F913F912F910F900BBE0F900FBE0F9028
:1055A0001F90189540E855E260E070E080E090E0E0
:1055B00000C08130910571F01CF4892B39F00895F9
:1055C0008230910559F0039769F0089526E08CE543
:1055D00095E00BC026E089EF95E007C026E086E95C
:1055E00096E003C026E083E397E0AFCB1F920F92D3
:1055F0000FB60F9211240BB60F922F933F934F9338
:105600005F936F937F938F939F93AF93BF93EF932A
:10561000FF938BEC93EF90932501809324010E94DC
:105620009636FF91EF91BF91AF919F918F917F91AE
:105630006F915F914F913F912F910F900BBE0F9003
:105640000FBE0F901F9018958BEC93EF9093250150
:1056500080932401A3E7B0E08C918E7F8C93E0E2ED
:10566000F1E080818C7F8083E1E2F1E08081877EC0
:10567000808380818460808380818C7F80838C9113
:1056800081608C93089581E008956F927F928F924C
:105690009F92AF92BF92CF92DF92EF92FF920F93C1
:1056A0001F93CF93DF935C017B014A0101E010E07F
:1056B0000E151F0564F568018FEFC81AD80AE801B6
:1056C000CC0FDD1FC80DD91D68807980611471046D
:1056D000E1F06DE273E0C3010E94FB3A892B19F4FB
:1056E0001982188212C060E373E0C3010E94FB3A82
:1056F000892B59F4CE14DF0441F06801E2E0CE0EAC
:10570000D11C198218821B821A828601D1CF81E0B6
:10571000F5018083B401C7010E94E635F50192834B
:10572000818380E090E0DF91CF911F910F91FF90F6
:10573000EF90DF90CF90BF90AF909F908F907F9031
:105740006F9008958DED97E0089580E008950F9390
:105750001F93CF93DF938B01BA01E901198218825D
:105760009801012E000C440B550BFC0181819281A4
:105770000E94AF10019621F01983088380E001C0D8
:1057800081E0DF91CF911F910F9108950F931F93A7
:10579000CF93DF931F921F92CDB7DEB7FB018A0133
:1057A000B9019E012F5F3F4FAF01FC0181819281C2
:1057B0000E94FD35019639F089819A81F801918323
:1057C000808380E001C081E00F900F90DF91CF9146
:1057D0001F910F910895FC01808108950895089507
:1057E00081E0FB01808380E008950895109207080E
:1057F0000895FC01818192810C94DD35CF93DF9374
:10580000CDB7DEB72A970FB6F894DEBF0FBECDBF77
:10581000AC01CB0160E070E049835A836B837C83E9
:10582000092E000CAA0BBB0B8D839E83AF83B88718
:105830009E01275F3F4FAE014F5F5F4F68E070E012
:105840008091F6079091F70782DF811108C081E00F
:1058500029853A852830310519F480E001C081E0BE
:105860002A960FB6F894DEBF0FBECDBFDF91CF9161
:1058700008950F931F93CF93DF931F921F92CDB77D
:10588000DEB78B019E012F5F3F4FAC018091F60781
:105890009091F7075CDF811108C081E029813A818E
:1058A0002017310719F480E001C081E00F900F90BC
:1058B000DF91CF911F910F910895CF93DF93EC016A
:1058C0001092FA071092F907109206081092050834
:1058D000AC0160E070E0CB010E941E0AAE0161E005
:1058E00070E080E090E00E941E0A8091F60790919F
:1058F000F707DF91CF9179CF4F925F926F927F92AE
:105900008F929F92AF92BF92CF92DF92EF92FF92CF
:105910000F931F93CF93DF931F921F92CDB7DEB7E4
:105920009C016C0197FF03C087E0C80ED11C43E0C7
:10593000D594C7944A95E1F7C90168E070E00E94E8
:10594000ED387C0189010E5F1F4F8091F407909123
:10595000F507801791070CF0DCC08091F207909159
:10596000F307009731F00E94533A1092F507109216
:10597000F407C8010E94BE399093F3078093F207A1
:10598000892B29F01093F5070093F407C2C0A12CCE
:10599000B12CAC14BD040CF05EC0412C512C320172
:1059A00000E010E098012550384FAE014F5F5F4F87
:1059B00061E070E08091F6079091F707E7DE8111D2
:1059C00098C189819A812FEF421A520A620A720A9B
:1059D00020E942162FE5520621E0620671043CF0F0
:1059E00060910508709106088DEE90E02DC0080FBB
:1059F000191F0A30110551F549E050E060E070E0F0
:105A00008BEF97E00E948836609105087091060838
:105A10008823C1F08091030890E06817790709F0A6
:105A2000B8CF8EEE90E0EADE8091050890910608EE
:105A30000196992790930608809305088FEFA81A7E
:105A4000B80AA7CF8FEE90E0D9DEA7CF0A301105B4
:105A50000CF4A8CF9ECFEF2809F44BC1C12CD12C58
:105A6000760100E010E098012550384FAE014F5FFD
:105A70005F4F61E070E08091F6079091F70786DE56
:105A8000811137C189819A812FEFC21AD20AE20AA5
:105A9000F20A20E9C2162FE5D20621E0E206F1045F
:105AA0003CF060910508709106088DEE90E02AC0E8
:105AB000080F191F0A30110539F549E050E060E080
:105AC00070E08BEF97E00E94883660910508709136
:105AD00006088823A9F08091030890E068177907E9
